{
  "contractName": "passwordEscrow",
  "abi": [
    {
      "constant": true,
      "inputs": [],
      "name": "totalFee",
      "outputs": [
        {
          "name": "",
          "type": "uint256"
        }
      ],
      "payable": false,
      "stateMutability": "view",
      "type": "function",
      "signature": "0x1df4ccfc"
    },
    {
      "constant": true,
      "inputs": [],
      "name": "commissionFee",
      "outputs": [
        {
          "name": "",
          "type": "uint256"
        }
      ],
      "payable": false,
      "stateMutability": "view",
      "type": "function",
      "signature": "0x6fb1eb0c"
    },
    {
      "constant": false,
      "inputs": [],
      "name": "renounceOwnership",
      "outputs": [],
      "payable": false,
      "stateMutability": "nonpayable",
      "type": "function",
      "signature": "0x715018a6"
    },
    {
      "constant": true,
      "inputs": [],
      "name": "owner",
      "outputs": [
        {
          "name": "",
          "type": "address"
        }
      ],
      "payable": false,
      "stateMutability": "view",
      "type": "function",
      "signature": "0x8da5cb5b"
    },
    {
      "constant": true,
      "inputs": [],
      "name": "isOwner",
      "outputs": [
        {
          "name": "",
          "type": "bool"
        }
      ],
      "payable": false,
      "stateMutability": "view",
      "type": "function",
      "signature": "0x8f32d59b"
    },
    {
      "constant": true,
      "inputs": [],
      "name": "getPin",
      "outputs": [
        {
          "name": "",
          "type": "uint256"
        }
      ],
      "payable": false,
      "stateMutability": "view",
      "type": "function",
      "signature": "0xc8c4b43d"
    },
    {
      "constant": true,
      "inputs": [],
      "name": "getThreePins",
      "outputs": [
        {
          "name": "",
          "type": "uint256"
        },
        {
          "name": "",
          "type": "uint256"
        },
        {
          "name": "",
          "type": "uint256"
        }
      ],
      "payable": false,
      "stateMutability": "view",
      "type": "function",
      "signature": "0xf18273c7"
    },
    {
      "constant": false,
      "inputs": [
        {
          "name": "newOwner",
          "type": "address"
        }
      ],
      "name": "transferOwnership",
      "outputs": [],
      "payable": false,
      "stateMutability": "nonpayable",
      "type": "function",
      "signature": "0xf2fde38b"
    },
    {
      "inputs": [
        {
          "name": "_fee",
          "type": "uint256"
        }
      ],
      "payable": false,
      "stateMutability": "nonpayable",
      "type": "constructor",
      "signature": "constructor"
    },
    {
      "anonymous": false,
      "inputs": [
        {
          "indexed": true,
          "name": "from",
          "type": "address"
        },
        {
          "indexed": false,
          "name": "amount",
          "type": "uint256"
        }
      ],
      "name": "LogDeposit",
      "type": "event",
      "signature": "0x1b851e1031ef35a238e6c67d0c7991162390df915f70eaf9098dbf0b175a6198"
    },
    {
      "anonymous": false,
      "inputs": [
        {
          "indexed": true,
          "name": "from",
          "type": "address"
        },
        {
          "indexed": true,
          "name": "recipient",
          "type": "address"
        },
        {
          "indexed": false,
          "name": "amount",
          "type": "uint256"
        }
      ],
      "name": "LogGetTransfer",
      "type": "event",
      "signature": "0x0659164e06f88c14cce61f2bcb9ea9a64024f465347591ac1dd042b747e34b97"
    },
    {
      "anonymous": false,
      "inputs": [
        {
          "indexed": true,
          "name": "previousOwner",
          "type": "address"
        },
        {
          "indexed": true,
          "name": "newOwner",
          "type": "address"
        }
      ],
      "name": "OwnershipTransferred",
      "type": "event",
      "signature": "0x8be0079c531659141344cd1fd0a4f28419497f9722a3daafe3b4186f6b6457e0"
    },
    {
      "constant": false,
      "inputs": [],
      "name": "withdraw",
      "outputs": [],
      "payable": true,
      "stateMutability": "payable",
      "type": "function",
      "signature": "0x3ccfd60b"
    },
    {
      "constant": false,
      "inputs": [],
      "name": "withdrawFee",
      "outputs": [],
      "payable": true,
      "stateMutability": "payable",
      "type": "function",
      "signature": "0xe941fa78"
    },
    {
      "constant": false,
      "inputs": [
        {
          "name": "_fee",
          "type": "uint256"
        }
      ],
      "name": "changeCommissionFee",
      "outputs": [],
      "payable": false,
      "stateMutability": "nonpayable",
      "type": "function",
      "signature": "0x1cf196df"
    },
    {
      "constant": false,
      "inputs": [
        {
          "name": "_password",
          "type": "bytes32"
        }
      ],
      "name": "deposit",
      "outputs": [],
      "payable": true,
      "stateMutability": "payable",
      "type": "function",
      "signature": "0xb214faa5"
    },
    {
      "constant": false,
      "inputs": [
        {
          "name": "_password",
          "type": "bytes32"
        },
        {
          "name": "_pin",
          "type": "uint256"
        }
      ],
      "name": "getTransfer",
      "outputs": [],
      "payable": false,
      "stateMutability": "nonpayable",
      "type": "function",
      "signature": "0x5b1b5d90"
    }
  ],
  "bytecode": "0x608060405234801561001057600080fd5b5060405160208061101c8339810180604052602081101561003057600080fd5b8101908080519060200190929190505050336000806101000a81548173ffffffffffffffffffffffffffffffffffffffff021916908373ffffffffffffffffffffffffffffffffffffffff1602179055506000809054906101000a900473ffffffffffffffffffffffffffffffffffffffff1673ffffffffffffffffffffffffffffffffffffffff16600073ffffffffffffffffffffffffffffffffffffffff167f8be0079c531659141344cd1fd0a4f28419497f9722a3daafe3b4186f6b6457e060405160405180910390a3610114610127640100000000026401000000009004565b60018190555080600481905550506101b3565b600080600154424333604051602001808581526020018481526020018381526020018273ffffffffffffffffffffffffffffffffffffffff1673ffffffffffffffffffffffffffffffffffffffff166c01000000000000000000000000028152601401945050505050604051602081830303815290604052805190602001206001900490508091505090565b610e5a806101c26000396000f3fe6080604052600436106100bf576000357c0100000000000000000000000000000000000000000000000000000000900480631cf196df146100c45780631df4ccfc146100ff5780633ccfd60b1461012a5780635b1b5d90146101345780636fb1eb0c14610179578063715018a6146101a45780638da5cb5b146101bb5780638f32d59b14610212578063b214faa514610241578063c8c4b43d1461026f578063e941fa781461029a578063f18273c7146102a4578063f2fde38b146102dd575b600080fd5b3480156100d057600080fd5b506100fd600480360360208110156100e757600080fd5b810190808035906020019092919050505061032e565b005b34801561010b57600080fd5b5061011461034b565b6040518082815260200191505060405180910390f35b610132610351565b005b34801561014057600080fd5b506101776004803603604081101561015757600080fd5b8101908080359060200190929190803590602001909291905050506103c4565b005b34801561018557600080fd5b5061018e610575565b6040518082815260200191505060405180910390f35b3480156101b057600080fd5b506101b961057b565b005b3480156101c757600080fd5b506101d061064d565b604051808273ffffffffffffffffffffffffffffffffffffffff1673ffffffffffffffffffffffffffffffffffffffff16815260200191505060405180910390f35b34801561021e57600080fd5b50610227610676565b604051808215151515815260200191505060405180910390f35b61026d6004803603602081101561025757600080fd5b81019080803590602001909291905050506106cd565b005b34801561027b57600080fd5b5061028461083e565b6040518082815260200191505060405180910390f35b6102a26108d8565b005b3480156102b057600080fd5b506102b9610955565b60405180848152602001838152602001828152602001935050505060405180910390f35b3480156102e957600080fd5b5061032c6004803603602081101561030057600080fd5b81019080803573ffffffffffffffffffffffffffffffffffffffff169060200190929190505050610b2e565b005b610336610676565b151561034157600080fd5b8060048190555050565b60055481565b610359610676565b151561036457600080fd5b3373ffffffffffffffffffffffffffffffffffffffff166108fc3073ffffffffffffffffffffffffffffffffffffffff16319081150290604051600060405180830381858888f193505050501580156103c1573d6000803e3d6000fd5b50565b6000828260405160200180838152602001828152602001925050506040516020818303038152906040528051906020012090506000600660008381526020019081526020016000206001015411151561041c57600080fd5b60006006600083815260200190815260200160002060000160009054906101000a900473ffffffffffffffffffffffffffffffffffffffff16905060006006600084815260200190815260200160002060010154905061048760045482610b4d90919063ffffffff16565b90506104a0600454600554610b6f90919063ffffffff16565b600581905550600060066000858152602001908152602001600020600101819055503373ffffffffffffffffffffffffffffffffffffffff166108fc829081150290604051600060405180830381858888f19350505050158015610508573d6000803e3d6000fd5b503373ffffffffffffffffffffffffffffffffffffffff168273ffffffffffffffffffffffffffffffffffffffff167f0659164e06f88c14cce61f2bcb9ea9a64024f465347591ac1dd042b747e34b97836040518082815260200191505060405180910390a35050505050565b60045481565b610583610676565b151561058e57600080fd5b600073ffffffffffffffffffffffffffffffffffffffff166000809054906101000a900473ffffffffffffffffffffffffffffffffffffffff1673ffffffffffffffffffffffffffffffffffffffff167f8be0079c531659141344cd1fd0a4f28419497f9722a3daafe3b4186f6b6457e060405160405180910390a360008060006101000a81548173ffffffffffffffffffffffffffffffffffffffff021916908373ffffffffffffffffffffffffffffffffffffffff160217905550565b60008060009054906101000a900473ffffffffffffffffffffffffffffffffffffffff16905090565b60008060009054906101000a900473ffffffffffffffffffffffffffffffffffffffff1673ffffffffffffffffffffffffffffffffffffffff163373ffffffffffffffffffffffffffffffffffffffff1614905090565b600454341115156106dd57600080fd5b60006106e7610b90565b905060008160010290506000838260405160200180838152602001828152602001925050506040516020818303038152906040528051906020012090506000600660008381526020019081526020016000206001015414151561074957600080fd5b61075283610bbc565b336006600083815260200190815260200160002060000160006101000a81548173ffffffffffffffffffffffffffffffffffffffff021916908373ffffffffffffffffffffffffffffffffffffffff1602179055506107d0346006600084815260200190815260200160002060010154610b6f90919063ffffffff16565b60066000838152602001908152602001600020600101819055503373ffffffffffffffffffffffffffffffffffffffff167f1b851e1031ef35a238e6c67d0c7991162390df915f70eaf9098dbf0b175a6198346040518082815260200191505060405180910390a250505050565b6000600360003373ffffffffffffffffffffffffffffffffffffffff1673ffffffffffffffffffffffffffffffffffffffff16815260200190815260200160002060006001600260003373ffffffffffffffffffffffffffffffffffffffff1673ffffffffffffffffffffffffffffffffffffffff1681526020019081526020016000205403815260200190815260200160002054905090565b6108e0610676565b15156108eb57600080fd5b60006005541115156108fc57600080fd5b6000600554905060006005819055503373ffffffffffffffffffffffffffffffffffffffff166108fc829081150290604051600060405180830381858888f19350505050158015610951573d6000803e3d6000fd5b5050565b600080600080600360003373ffffffffffffffffffffffffffffffffffffffff1673ffffffffffffffffffffffffffffffffffffffff16815260200190815260200160002060006001600260003373ffffffffffffffffffffffffffffffffffffffff1673ffffffffffffffffffffffffffffffffffffffff168152602001908152602001600020540381526020019081526020016000205490506000600360003373ffffffffffffffffffffffffffffffffffffffff1673ffffffffffffffffffffffffffffffffffffffff168152602001908152602001600020600060028060003373ffffffffffffffffffffffffffffffffffffffff1673ffffffffffffffffffffffffffffffffffffffff168152602001908152602001600020540381526020019081526020016000205490506000600360003373ffffffffffffffffffffffffffffffffffffffff1673ffffffffffffffffffffffffffffffffffffffff16815260200190815260200160002060006003600260003373ffffffffffffffffffffffffffffffffffffffff1673ffffffffffffffffffffffffffffffffffffffff16815260200190815260200160002054038152602001908152602001600020549050828282955095509550505050909192565b610b36610676565b1515610b4157600080fd5b610b4a81610ca8565b50565b6000828211151515610b5e57600080fd5b600082840390508091505092915050565b6000808284019050838110151515610b8657600080fd5b8091505092915050565b600080610b9b610da2565b905080600181905550620f424081811515610bb257fe5b0690508091505090565b6000600260003373ffffffffffffffffffffffffffffffffffffffff1673ffffffffffffffffffffffffffffffffffffffff168152602001908152602001600020549050600260003373ffffffffffffffffffffffffffffffffffffffff1673ffffffffffffffffffffffffffffffffffffffff1681526020019081526020016000206000815480929190600101919050555081600360003373ffffffffffffffffffffffffffffffffffffffff1673ffffffffffffffffffffffffffffffffffffffff1681526020019081526020016000206000838152602001908152602001600020819055505050565b600073ffffffffffffffffffffffffffffffffffffffff168173ffffffffffffffffffffffffffffffffffffffff1614151515610ce457600080fd5b8073ffffffffffffffffffffffffffffffffffffffff166000809054906101000a900473ffffffffffffffffffffffffffffffffffffffff1673ffffffffffffffffffffffffffffffffffffffff167f8be0079c531659141344cd1fd0a4f28419497f9722a3daafe3b4186f6b6457e060405160405180910390a3806000806101000a81548173ffffffffffffffffffffffffffffffffffffffff021916908373ffffffffffffffffffffffffffffffffffffffff16021790555050565b600080600154424333604051602001808581526020018481526020018381526020018273ffffffffffffffffffffffffffffffffffffffff1673ffffffffffffffffffffffffffffffffffffffff166c0100000000000000000000000002815260140194505050505060405160208183030381529060405280519060200120600190049050809150509056fea165627a7a723058207c5aec224b9cfdda3cd085be288abe3c23b3bbd2925ab488aa10c01e0ca7249a0029",
  "source": "pragma solidity ^0.5.0;\n\nimport \"openzeppelin-solidity/contracts/ownership/Ownable.sol\";\nimport \"openzeppelin-solidity/contracts/math/SafeMath.sol\";\n\nimport \"./pinStorage.sol\";\nimport \"./rand.sol\";\n\ncontract passwordEscrow is Ownable, Rand, PinStorage {\n  using SafeMath for uint256;\n\n  uint256 public commissionFee;\n  uint256 public totalFee;\n\n  struct Transfer {\n    address from;\n    uint256 amount;\n  }\n\n  mapping(bytes32 => Transfer) private password;\n\n  event LogDeposit(address indexed from, uint256 amount);\n  event LogGetTransfer(address indexed from, address indexed recipient, uint256 amount);\n\n  constructor(uint256 _fee) public {\n    commissionFee = _fee;\n  }\n\n  function withdraw() public payable onlyOwner {\n    msg.sender.transfer(address(this).balance);\n  }\n\n  function withdrawFee() public payable onlyOwner {\n    require( totalFee > 0);\n\n    uint256 fee = totalFee;\n    totalFee = 0;\n\n    msg.sender.transfer(fee);\n  }\n\n  function changeCommissionFee(uint256 _fee) public onlyOwner {\n    commissionFee = _fee;\n  }\n\n  function deposit(bytes32 _password) public payable {\n    require(msg.value > commissionFee);\n\n    uint256 pin = updateSeed();\n    bytes32 _pin = bytes32(pin);\n    bytes32 pass = keccak256(abi.encodePacked(_password, _pin));\n\n    require(password[pass].amount == 0);\n\n    setPin(pin);\n    password[pass].from = msg.sender;\n    password[pass].amount = password[pass].amount.add(msg.value);\n\n    emit LogDeposit(msg.sender, msg.value);\n  }\n\n  function getTransfer(bytes32 _password, uint256 _pin) public {\n\n    bytes32 pass = keccak256(abi.encodePacked(_password, _pin));\n    require(password[pass].amount > 0);\n\n    address from = password[pass].from;\n    uint256 amount = password[pass].amount;\n    amount = amount.sub(commissionFee);\n    totalFee = totalFee.add(commissionFee);\n\n    password[pass].amount = 0;\n\n    msg.sender.transfer(amount);\n\n    emit LogGetTransfer(from, msg.sender, amount);\n  }\n\n}",
  "sourcePath": "/Users/sugimura/password/contracts/passwordEscrow.sol",
  "compiler": {
    "name": "solc",
    "version": "0.5.1+commit.c8a2cb62.Emscripten.clang"
  },
  "schemaVersion": "3.0.0",
  "updatedAt": "2019-01-07T15:04:42.424Z",
  "devdoc": {
    "methods": {
      "isOwner()": {
        "return": "true if `msg.sender` is the owner of the contract."
      },
      "owner()": {
        "return": "the address of the owner."
      },
      "renounceOwnership()": {
        "details": "Allows the current owner to relinquish control of the contract."
      },
      "transferOwnership(address)": {
        "details": "Allows the current owner to transfer control of the contract to a newOwner.",
        "params": {
          "newOwner": "The address to transfer ownership to."
        }
      }
    }
  },
  "userdoc": {
    "methods": {
      "renounceOwnership()": {
        "notice": "Renouncing to ownership will leave the contract without an owner. It will not be possible to call the functions with the `onlyOwner` modifier anymore."
      }
    }
  }
}