{
  "contractName": "PinStorage",
  "abi": [
    {
      "constant": true,
      "inputs": [],
      "name": "getPin",
      "outputs": [
        {
          "name": "",
          "type": "uint256"
        }
      ],
      "payable": false,
      "stateMutability": "view",
      "type": "function"
    },
    {
      "constant": true,
      "inputs": [],
      "name": "getThreePins",
      "outputs": [
        {
          "name": "",
          "type": "uint256"
        },
        {
          "name": "",
          "type": "uint256"
        },
        {
          "name": "",
          "type": "uint256"
        }
      ],
      "payable": false,
      "stateMutability": "view",
      "type": "function"
    }
  ],
  "bytecode": "0x608060405234801561001057600080fd5b5061034b806100206000396000f3fe608060405260043610610046576000357c010000000000000000000000000000000000000000000000000000000090048063c8c4b43d1461004b578063f18273c714610076575b600080fd5b34801561005757600080fd5b506100606100af565b6040518082815260200191505060405180910390f35b34801561008257600080fd5b5061008b610148565b60405180848152602001838152602001828152602001935050505060405180910390f35b6000600160003373ffffffffffffffffffffffffffffffffffffffff1673ffffffffffffffffffffffffffffffffffffffff168152602001908152602001600020600060016000803373ffffffffffffffffffffffffffffffffffffffff1673ffffffffffffffffffffffffffffffffffffffff1681526020019081526020016000205403815260200190815260200160002054905090565b600080600080600160003373ffffffffffffffffffffffffffffffffffffffff1673ffffffffffffffffffffffffffffffffffffffff168152602001908152602001600020600060016000803373ffffffffffffffffffffffffffffffffffffffff1673ffffffffffffffffffffffffffffffffffffffff168152602001908152602001600020540381526020019081526020016000205490506000600160003373ffffffffffffffffffffffffffffffffffffffff1673ffffffffffffffffffffffffffffffffffffffff168152602001908152602001600020600060026000803373ffffffffffffffffffffffffffffffffffffffff1673ffffffffffffffffffffffffffffffffffffffff168152602001908152602001600020540381526020019081526020016000205490506000600160003373ffffffffffffffffffffffffffffffffffffffff1673ffffffffffffffffffffffffffffffffffffffff168152602001908152602001600020600060036000803373ffffffffffffffffffffffffffffffffffffffff1673ffffffffffffffffffffffffffffffffffffffff1681526020019081526020016000205403815260200190815260200160002054905082828295509550955050505090919256fea165627a7a7230582068b6b780dbf41141f8cc05723c11bb33f61802215eae1e8db0e50c63c07d14bf0029",
  "source": "pragma solidity ^0.5.0;\n\n\ncontract PinStorage {\n\n  // address => count\n  mapping(address => uint256) private countToAddress;\n\n  mapping(address => mapping(uint256 => uint256)) private pinToAddress;\n\n  function setPin(uint256 _pin) internal {\n    uint256 index = countToAddress[msg.sender];\n    countToAddress[msg.sender]++;\n    pinToAddress[msg.sender][index] = _pin;\n  }\n\n  function getPin() public view returns(uint256) {\n    return pinToAddress[msg.sender][\n      countToAddress[msg.sender] - 1\n    ];\n  }\n\n  function getThreePins() public view returns(uint256, uint256, uint256) {\n    uint256 num1 =  pinToAddress[msg.sender][countToAddress[msg.sender] - 1];\n    uint256 num2 =  pinToAddress[msg.sender][countToAddress[msg.sender] - 2];\n    uint256 num3 =  pinToAddress[msg.sender][countToAddress[msg.sender] - 3];\n\n    return(num1, num2, num3);\n  }\n}",
  "sourcePath": "/Users/sugimura/password/contracts/pinStorage.sol",
  "compiler": {
    "name": "solc",
    "version": "0.5.1+commit.c8a2cb62.Emscripten.clang"
  },
  "schemaVersion": "3.0.0",
  "updatedAt": "2019-01-07T14:56:05.802Z",
  "devdoc": {
    "methods": {}
  },
  "userdoc": {
    "methods": {}
  }
}